{"abi":[{"type":"constructor","inputs":[{"name":"_owner","type":"address","internalType":"address"}],"stateMutability":"nonpayable"},{"type":"function","name":"allowance","inputs":[{"name":"","type":"address","internalType":"address"},{"name":"","type":"address","internalType":"address"}],"outputs":[{"name":"","type":"uint256","internalType":"uint256"}],"stateMutability":"view"},{"type":"function","name":"approve","inputs":[{"name":"spender","type":"address","internalType":"address"},{"name":"amountOrId","type":"uint256","internalType":"uint256"}],"outputs":[{"name":"","type":"bool","internalType":"bool"}],"stateMutability":"nonpayable"},{"type":"function","name":"balanceOf","inputs":[{"name":"","type":"address","internalType":"address"}],"outputs":[{"name":"","type":"uint256","internalType":"uint256"}],"stateMutability":"view"},{"type":"function","name":"baseTokenURI","inputs":[],"outputs":[{"name":"","type":"string","internalType":"string"}],"stateMutability":"view"},{"type":"function","name":"dataURI","inputs":[],"outputs":[{"name":"","type":"string","internalType":"string"}],"stateMutability":"view"},{"type":"function","name":"decimals","inputs":[],"outputs":[{"name":"","type":"uint8","internalType":"uint8"}],"stateMutability":"view"},{"type":"function","name":"getApproved","inputs":[{"name":"","type":"uint256","internalType":"uint256"}],"outputs":[{"name":"","type":"address","internalType":"address"}],"stateMutability":"view"},{"type":"function","name":"isApprovedForAll","inputs":[{"name":"","type":"address","internalType":"address"},{"name":"","type":"address","internalType":"address"}],"outputs":[{"name":"","type":"bool","internalType":"bool"}],"stateMutability":"view"},{"type":"function","name":"minted","inputs":[],"outputs":[{"name":"","type":"uint256","internalType":"uint256"}],"stateMutability":"view"},{"type":"function","name":"name","inputs":[],"outputs":[{"name":"","type":"string","internalType":"string"}],"stateMutability":"view"},{"type":"function","name":"owner","inputs":[],"outputs":[{"name":"","type":"address","internalType":"address"}],"stateMutability":"view"},{"type":"function","name":"ownerOf","inputs":[{"name":"id","type":"uint256","internalType":"uint256"}],"outputs":[{"name":"owner","type":"address","internalType":"address"}],"stateMutability":"view"},{"type":"function","name":"revokeOwnership","inputs":[],"outputs":[],"stateMutability":"nonpayable"},{"type":"function","name":"safeTransferFrom","inputs":[{"name":"from","type":"address","internalType":"address"},{"name":"to","type":"address","internalType":"address"},{"name":"id","type":"uint256","internalType":"uint256"}],"outputs":[],"stateMutability":"nonpayable"},{"type":"function","name":"safeTransferFrom","inputs":[{"name":"from","type":"address","internalType":"address"},{"name":"to","type":"address","internalType":"address"},{"name":"id","type":"uint256","internalType":"uint256"},{"name":"data","type":"bytes","internalType":"bytes"}],"outputs":[],"stateMutability":"nonpayable"},{"type":"function","name":"setApprovalForAll","inputs":[{"name":"operator","type":"address","internalType":"address"},{"name":"approved","type":"bool","internalType":"bool"}],"outputs":[],"stateMutability":"nonpayable"},{"type":"function","name":"setDataURI","inputs":[{"name":"_dataURI","type":"string","internalType":"string"}],"outputs":[],"stateMutability":"nonpayable"},{"type":"function","name":"setNameSymbol","inputs":[{"name":"_name","type":"string","internalType":"string"},{"name":"_symbol","type":"string","internalType":"string"}],"outputs":[],"stateMutability":"nonpayable"},{"type":"function","name":"setTokenURI","inputs":[{"name":"_tokenURI","type":"string","internalType":"string"}],"outputs":[],"stateMutability":"nonpayable"},{"type":"function","name":"setWhitelist","inputs":[{"name":"target","type":"address","internalType":"address"},{"name":"state","type":"bool","internalType":"bool"}],"outputs":[],"stateMutability":"nonpayable"},{"type":"function","name":"symbol","inputs":[],"outputs":[{"name":"","type":"string","internalType":"string"}],"stateMutability":"view"},{"type":"function","name":"tokenURI","inputs":[{"name":"id","type":"uint256","internalType":"uint256"}],"outputs":[{"name":"","type":"string","internalType":"string"}],"stateMutability":"view"},{"type":"function","name":"totalSupply","inputs":[],"outputs":[{"name":"","type":"uint256","internalType":"uint256"}],"stateMutability":"view"},{"type":"function","name":"transfer","inputs":[{"name":"to","type":"address","internalType":"address"},{"name":"amount","type":"uint256","internalType":"uint256"}],"outputs":[{"name":"","type":"bool","internalType":"bool"}],"stateMutability":"nonpayable"},{"type":"function","name":"transferFrom","inputs":[{"name":"from","type":"address","internalType":"address"},{"name":"to","type":"address","internalType":"address"},{"name":"amountOrId","type":"uint256","internalType":"uint256"}],"outputs":[],"stateMutability":"nonpayable"},{"type":"function","name":"transferOwnership","inputs":[{"name":"_owner","type":"address","internalType":"address"}],"outputs":[],"stateMutability":"nonpayable"},{"type":"function","name":"whitelist","inputs":[{"name":"","type":"address","internalType":"address"}],"outputs":[{"name":"","type":"bool","internalType":"bool"}],"stateMutability":"view"},{"type":"event","name":"Approval","inputs":[{"name":"owner","type":"address","indexed":true,"internalType":"address"},{"name":"spender","type":"address","indexed":true,"internalType":"address"},{"name":"amount","type":"uint256","indexed":false,"internalType":"uint256"}],"anonymous":false},{"type":"event","name":"ApprovalForAll","inputs":[{"name":"owner","type":"address","indexed":true,"internalType":"address"},{"name":"operator","type":"address","indexed":true,"internalType":"address"},{"name":"approved","type":"bool","indexed":false,"internalType":"bool"}],"anonymous":false},{"type":"event","name":"ERC20Transfer","inputs":[{"name":"from","type":"address","indexed":true,"internalType":"address"},{"name":"to","type":"address","indexed":true,"internalType":"address"},{"name":"amount","type":"uint256","indexed":false,"internalType":"uint256"}],"anonymous":false},{"type":"event","name":"ERC721Approval","inputs":[{"name":"owner","type":"address","indexed":true,"internalType":"address"},{"name":"spender","type":"address","indexed":true,"internalType":"address"},{"name":"id","type":"uint256","indexed":true,"internalType":"uint256"}],"anonymous":false},{"type":"event","name":"OwnershipTransferred","inputs":[{"name":"user","type":"address","indexed":true,"internalType":"address"},{"name":"newOwner","type":"address","indexed":true,"internalType":"address"}],"anonymous":false},{"type":"event","name":"Transfer","inputs":[{"name":"from","type":"address","indexed":true,"internalType":"address"},{"name":"to","type":"address","indexed":true,"internalType":"address"},{"name":"id","type":"uint256","indexed":true,"internalType":"uint256"}],"anonymous":false},{"type":"error","name":"AlreadyExists","inputs":[]},{"type":"error","name":"InvalidOwner","inputs":[]},{"type":"error","name":"InvalidRecipient","inputs":[]},{"type":"error","name":"InvalidSender","inputs":[]},{"type":"error","name":"NotFound","inputs":[]},{"type":"error","name":"Unauthorized","inputs":[]},{"type":"error","name":"UnsafeRecipient","inputs":[]}],"bytecode":{"object":"0x60c06040523480156200001157600080fd5b506040516200239e3803806200239e833981016040819052620000349162000152565b60408051808201825260078082526615195cdd0d0c0d60ca1b602080840182905284518086019095529184529083015290601261271084806001600160a01b03811662000094576040516349e27cff60e01b815260040160405180910390fd5b600080546001600160a01b0319166001600160a01b03831690811782556040519091907f8be0079c531659141344cd1fd0a4f28419497f9722a3daafe3b4186f6b6457e0908290a3506001620000eb86826200022b565b506002620000fa85826200022b565b5060ff831660808190526200011190600a6200040c565b6200011d90836200041d565b60a0525050506001600160a01b03909216600090815260046020526040902069021e19e0c9bab2400000905550620004379050565b6000602082840312156200016557600080fd5b81516001600160a01b03811681146200017d57600080fd5b9392505050565b634e487b7160e01b600052604160045260246000fd5b600181811c90821680620001af57607f821691505b602082108103620001d057634e487b7160e01b600052602260045260246000fd5b50919050565b601f82111562000226576000816000526020600020601f850160051c81016020861015620002015750805b601f850160051c820191505b8181101562000222578281556001016200020d565b5050505b505050565b81516001600160401b0381111562000247576200024762000184565b6200025f816200025884546200019a565b84620001d6565b602080601f8311600181146200029757600084156200027e5750858301515b600019600386901b1c1916600185901b17855562000222565b600085815260208120601f198616915b82811015620002c857888601518255948401946001909101908401620002a7565b5085821015620002e75787850151600019600388901b60f8161c191681555b5050505050600190811b01905550565b634e487b7160e01b600052601160045260246000fd5b600181815b808511156200034e578160001904821115620003325762000332620002f7565b808516156200034057918102915b93841c939080029062000312565b509250929050565b600082620003675750600162000406565b81620003765750600062000406565b81600181146200038f57600281146200039a57620003ba565b600191505062000406565b60ff841115620003ae57620003ae620002f7565b50506001821b62000406565b5060208310610133831016604e8410600b8410161715620003df575081810a62000406565b620003eb83836200030d565b8060001904821115620004025762000402620002f7565b0290505b92915050565b60006200017d60ff84168362000356565b8082028115828204841417620004065762000406620002f7565b60805160a051611f3a62000464600039600061023501526000818161029a01526110880152611f3a6000f3fe608060405234801561001057600080fd5b50600436106101a95760003560e01c806370a08231116100f9578063c87b56dd11610097578063e0df5b6f11610071578063e0df5b6f14610400578063e985e9c514610413578063f28ca1dd14610441578063f2fde38b1461044957600080fd5b8063c87b56dd146103ba578063d547cfb7146103cd578063dd62ed3e146103d557600080fd5b80639b19251a116100d35780639b19251a1461035e578063a22cb46514610381578063a9059cbb14610394578063b88d4fde146103a757600080fd5b806370a08231146103235780638da5cb5b1461034357806395d89b411461035657600080fd5b80632b968958116101665780634f02c420116101405780634f02c420146102e1578063504334c2146102ea57806353d6fd59146102fd5780636352211e1461031057600080fd5b80632b9689581461028d578063313ce5671461029557806342842e0e146102ce57600080fd5b806306fdde03146101ae578063081812fc146101cc578063095ea7b31461020d57806318160ddd1461023057806318d217c31461026557806323b872dd1461027a575b600080fd5b6101b661045c565b6040516101c3919061163c565b60405180910390f35b6101f56101da36600461166f565b6006602052600090815260409020546001600160a01b031681565b6040516001600160a01b0390911681526020016101c3565b61022061021b36600461169f565b6104ea565b60405190151581526020016101c3565b6102577f000000000000000000000000000000000000000000000000000000000000000081565b6040519081526020016101c3565b61027861027336600461176c565b61063b565b005b6102786102883660046117a9565b610675565b6102786109fe565b6102bc7f000000000000000000000000000000000000000000000000000000000000000081565b60405160ff90911681526020016101c3565b6102786102dc3660046117a9565b610a64565b61025760035481565b6102786102f83660046117e5565b610b39565b61027861030b366004611849565b610b6d565b6101f561031e36600461166f565b610bc2565b610257610331366004611885565b60046020526000908152604090205481565b6000546101f5906001600160a01b031681565b6101b6610bfd565b61022061036c366004611885565b600b6020526000908152604090205460ff1681565b61027861038f366004611849565b610c0a565b6102206103a236600461169f565b610c76565b6102786103b53660046118a0565b610c8a565b6101b66103c836600461166f565b610d4d565b6101b6610f95565b6102576103e336600461193b565b600560209081526000928352604080842090915290825290205481565b61027861040e36600461176c565b610fa2565b61022061042136600461193b565b600760209081526000928352604080842090915290825290205460ff1681565b6101b6610fd8565b610278610457366004611885565b610fe5565b600180546104699061196e565b80601f01602080910402602001604051908101604052809291908181526020018280546104959061196e565b80156104e25780601f106104b7576101008083540402835291602001916104e2565b820191906000526020600020905b8154815290600101906020018083116104c557829003601f168201915b505050505081565b600060035482111580156104fe5750600082115b156105d5576000828152600860205260409020546001600160a01b031633811480159061054f57506001600160a01b038116600090815260076020908152604080832033845290915290205460ff16155b1561056c576040516282b42960e81b815260040160405180910390fd5b60008381526006602090815260409182902080546001600160a01b0319166001600160a01b038881169182179092559251868152908416917f8c5be1e5ebec7d5bd14f71427d1e84f3dd0314c0f7b2291e5b200ac8c7c3b925910160405180910390a350610631565b3360008181526005602090815260408083206001600160a01b03881680855290835292819020869055518581529192917f8c5be1e5ebec7d5bd14f71427d1e84f3dd0314c0f7b2291e5b200ac8c7c3b925910160405180910390a35b5060015b92915050565b6000546001600160a01b03163314610665576040516282b42960e81b815260040160405180910390fd5b600c61067182826119f8565b5050565b600354811161098f576000818152600860205260409020546001600160a01b038481169116146106b857604051636edaef2f60e11b815260040160405180910390fd5b6001600160a01b0382166106df57604051634e46966960e11b815260040160405180910390fd5b336001600160a01b0384161480159061071c57506001600160a01b038316600090815260076020908152604080832033845290915290205460ff16155b801561073f57506000818152600660205260409020546001600160a01b03163314155b1561075c576040516282b42960e81b815260040160405180910390fd5b610764611081565b6001600160a01b0384166000908152600460205260408120805490919061078c908490611ace565b9091555061079a9050611081565b6001600160a01b03808416600081815260046020908152604080832080549096019095558582526008815284822080546001600160a01b03199081169094179055600681528482208054909316909255918616825260099052908120805461080490600190611ace565b8154811061081457610814611ae1565b60009182526020808320909101546001600160a01b0387168352600982526040808420868552600a9093529092205481549293508392811061085857610858611ae1565b60009182526020808320909101929092556001600160a01b038616815260099091526040902080548061088d5761088d611af7565b600082815260208082208301600019908101839055909201909255838252600a8152604080832054848452818420556001600160a01b0386168084526009835290832080546001818101835582865293852001869055925290546108f19190611ace565b6000838152600a602052604080822092909255905183916001600160a01b0380871692908816917fddf252ad1be2c89b69c2b068fc378daa952ba7f163c4a11628f55a4df523b3ef91a4826001600160a01b0316846001600160a01b03167fe59fdd36d0d223c0c7d996db7ad796880f45e1936cb0bb7ac102e7082e031487610978611081565b60405190815260200160405180910390a350505050565b6001600160a01b038316600090815260056020908152604080832033845290915290205460001981146109eb576109c68282611ace565b6001600160a01b03851660009081526005602090815260408083203384529091529020555b6109f68484846110b3565b50505b505050565b6000546001600160a01b03163314610a28576040516282b42960e81b815260040160405180910390fd5b600080546001600160a01b031916815560405133907f8be0079c531659141344cd1fd0a4f28419497f9722a3daafe3b4186f6b6457e0908390a3565b610a6f838383610675565b6001600160a01b0382163b15801590610b1b5750604051630a85bd0160e11b8082523360048301526001600160a01b03858116602484015260448301849052608060648401526000608484015290919084169063150b7a029060a4016020604051808303816000875af1158015610aea573d6000803e3d6000fd5b505050506040513d601f19601f82011682018060405250810190610b0e9190611b0d565b6001600160e01b03191614155b156109f957604051633da6393160e01b815260040160405180910390fd5b6000546001600160a01b03163314610b63576040516282b42960e81b815260040160405180910390fd5b6106718282611261565b6000546001600160a01b03163314610b97576040516282b42960e81b815260040160405180910390fd5b6001600160a01b03919091166000908152600b60205260409020805460ff1916911515919091179055565b6000818152600860205260409020546001600160a01b031680610bf85760405163c5723b5160e01b815260040160405180910390fd5b919050565b600280546104699061196e565b3360008181526007602090815260408083206001600160a01b03871680855290835292819020805460ff191686151590811790915590519081529192917f17307eab39ab6107e8899845ad3d59bd9653f200f220920489ca2b5937696c31910160405180910390a35050565b6000610c833384846110b3565b9392505050565b610c95858585610675565b6001600160a01b0384163b15801590610d2f5750604051630a85bd0160e11b808252906001600160a01b0386169063150b7a0290610cdf9033908a90899089908990600401611b37565b6020604051808303816000875af1158015610cfe573d6000803e3d6000fd5b505050506040513d601f19601f82011682018060405250810190610d229190611b0d565b6001600160e01b03191614155b156109f657604051633da6393160e01b815260040160405180910390fd5b60606000600d8054610d5e9061196e565b90501115610d9857600d610d718361127a565b604051602001610d82929190611b8b565b6040516020818303038152906040529050919050565b600082604051602001610dad91815260200190565b6040516020818303038152906040528051906020012060f81c905060608060648360ff1611610e1b5760405180604001604052806005815260200164312e6a706760d81b81525091506040518060400160405280600581526020016423b932b2b760d91b8152509050610e66565b60ff8360ff1611610e665760405180604001604052806005815260200164322e6a706760d81b815250915060405180604001604052806004815260200163426c756560e01b81525090505b6000610e718661127a565b604051602001610e819190611c12565b60408051601f1981840301815290829052610e9e91602001611c4e565b604051602081830303815290604052600c84604051602001610ec1929190611b8b565b60408051601f1981840301815290829052610edf9291602001611d27565b6040516020818303038152906040529050600082604051602001610f039190611d4d565b60408051601f1981840301815282820182526004835263227d5d7d60e01b6020848101919091529151909350610f3d918591859101611d27565b60408051601f1981840301815290829052610f5c918390602001611d27565b60408051601f1981840301815290829052610f7991602001611daa565b6040516020818303038152906040529650505050505050919050565b600d80546104699061196e565b6000546001600160a01b03163314610fcc576040516282b42960e81b815260040160405180910390fd5b600d61067182826119f8565b600c80546104699061196e565b6000546001600160a01b0316331461100f576040516282b42960e81b815260040160405180910390fd5b6001600160a01b038116611036576040516349e27cff60e01b815260040160405180910390fd5b600080546001600160a01b0319166001600160a01b0383169081178255604051909133917f8be0079c531659141344cd1fd0a4f28419497f9722a3daafe3b4186f6b6457e09190a350565b60006110ae7f0000000000000000000000000000000000000000000000000000000000000000600a611ed3565b905090565b6000806110be611081565b6001600160a01b038087166000818152600460205260408082208054948a16835290822054928252939450919290918691906110fa8386611ace565b90915550506001600160a01b03808716600090815260046020908152604080832080548a019055928a168252600b9052205460ff1661118c576001600160a01b038716600090815260046020526040812054611157908590611ee2565b6111618585611ee2565b61116b9190611ace565b905060005b81811015611189576111818961130d565b600101611170565b50505b6001600160a01b0386166000908152600b602052604090205460ff166112075760006111b88483611ee2565b6001600160a01b0388166000908152600460205260409020546111dc908690611ee2565b6111e69190611ace565b905060005b81811015611204576111fc88611435565b6001016111eb565b50505b856001600160a01b0316876001600160a01b03167fe59fdd36d0d223c0c7d996db7ad796880f45e1936cb0bb7ac102e7082e0314878760405161124c91815260200190565b60405180910390a35060019695505050505050565b600161126d83826119f8565b5060026109f982826119f8565b6060600061128783611540565b600101905060008167ffffffffffffffff8111156112a7576112a76116c9565b6040519080825280601f01601f1916602001820160405280156112d1576020820181803683370190505b5090508181016020015b600019016f181899199a1a9b1b9c1cb0b131b232b360811b600a86061a8153600a85049450846112db57509392505050565b6001600160a01b03811661133457604051636edaef2f60e11b815260040160405180910390fd5b6001600160a01b0381166000908152600960205260408120805461135a90600190611ace565b8154811061136a5761136a611ae1565b9060005260206000200154905060096000836001600160a01b03166001600160a01b031681526020019081526020016000208054806113ab576113ab611af7565b600082815260208082208301600019908101839055909201909255828252600a815260408083208390556008825280832080546001600160a01b031990811690915560069092528083208054909216909155518291906001600160a01b038516907fddf252ad1be2c89b69c2b068fc378daa952ba7f163c4a11628f55a4df523b3ef908390a45050565b6001600160a01b03811661145c57604051634e46966960e11b815260040160405180910390fd5b60038054600101908190556000818152600860205260409020546001600160a01b03161561149d5760405163119b4fd360e11b815260040160405180910390fd5b600081815260086020908152604080832080546001600160a01b0319166001600160a01b0387169081179091558084526009835290832080546001818101835582865293852001859055925290546114f59190611ace565b6000828152600a602052604080822092909255905182916001600160a01b038516917fddf252ad1be2c89b69c2b068fc378daa952ba7f163c4a11628f55a4df523b3ef908290a45050565b60008072184f03e93ff9f4daa797ed6e38ed64bf6a1f0160401b831061157f5772184f03e93ff9f4daa797ed6e38ed64bf6a1f0160401b830492506040015b6d04ee2d6d415b85acef810000000083106115ab576d04ee2d6d415b85acef8100000000830492506020015b662386f26fc1000083106115c957662386f26fc10000830492506010015b6305f5e10083106115e1576305f5e100830492506008015b61271083106115f557612710830492506004015b60648310611607576064830492506002015b600a83106106355760010192915050565b60005b8381101561163357818101518382015260200161161b565b50506000910152565b602081526000825180602084015261165b816040850160208701611618565b601f01601f19169190910160400192915050565b60006020828403121561168157600080fd5b5035919050565b80356001600160a01b0381168114610bf857600080fd5b600080604083850312156116b257600080fd5b6116bb83611688565b946020939093013593505050565b634e487b7160e01b600052604160045260246000fd5b600082601f8301126116f057600080fd5b813567ffffffffffffffff8082111561170b5761170b6116c9565b604051601f8301601f19908116603f01168101908282118183101715611733576117336116c9565b8160405283815286602085880101111561174c57600080fd5b836020870160208301376000602085830101528094505050505092915050565b60006020828403121561177e57600080fd5b813567ffffffffffffffff81111561179557600080fd5b6117a1848285016116df565b949350505050565b6000806000606084860312156117be57600080fd5b6117c784611688565b92506117d560208501611688565b9150604084013590509250925092565b600080604083850312156117f857600080fd5b823567ffffffffffffffff8082111561181057600080fd5b61181c868387016116df565b9350602085013591508082111561183257600080fd5b5061183f858286016116df565b9150509250929050565b6000806040838503121561185c57600080fd5b61186583611688565b91506020830135801515811461187a57600080fd5b809150509250929050565b60006020828403121561189757600080fd5b610c8382611688565b6000806000806000608086880312156118b857600080fd5b6118c186611688565b94506118cf60208701611688565b935060408601359250606086013567ffffffffffffffff808211156118f357600080fd5b818801915088601f83011261190757600080fd5b81358181111561191657600080fd5b89602082850101111561192857600080fd5b9699959850939650602001949392505050565b6000806040838503121561194e57600080fd5b61195783611688565b915061196560208401611688565b90509250929050565b600181811c9082168061198257607f821691505b6020821081036119a257634e487b7160e01b600052602260045260246000fd5b50919050565b601f8211156109f9576000816000526020600020601f850160051c810160208610156119d15750805b601f850160051c820191505b818110156119f0578281556001016119dd565b505050505050565b815167ffffffffffffffff811115611a1257611a126116c9565b611a2681611a20845461196e565b846119a8565b602080601f831160018114611a5b5760008415611a435750858301515b600019600386901b1c1916600185901b1785556119f0565b600085815260208120601f198616915b82811015611a8a57888601518255948401946001909101908401611a6b565b5085821015611aa85787850151600019600388901b60f8161c191681555b5050505050600190811b01905550565b634e487b7160e01b600052601160045260246000fd5b8181038181111561063557610635611ab8565b634e487b7160e01b600052603260045260246000fd5b634e487b7160e01b600052603160045260246000fd5b600060208284031215611b1f57600080fd5b81516001600160e01b031981168114610c8357600080fd5b6001600160a01b038681168252851660208201526040810184905260806060820181905281018290526000828460a0840137600060a0848401015260a0601f19601f85011683010190509695505050505050565b6000808454611b998161196e565b60018281168015611bb15760018114611bc657611bf5565b60ff1984168752821515830287019450611bf5565b8860005260208060002060005b85811015611bec5781548a820152908401908201611bd3565b50505082870194505b505050508351611c09818360208801611618565b01949350505050565b727b226e616d65223a202250616e646f7261202360681b81528151600090611c41816013850160208701611618565b9190910160130192915050565b60008251611c60818460208701611618565b7f222c226465736372697074696f6e223a224120636f6c6c656374696f6e206f669201918252507f2031302c303030205265706c6963616e747320656e61626c656420627920455260208201527f433430342c20616e206578706572696d656e74616c20746f6b656e207374616e60408201527f646172642e222c2265787465726e616c5f75726c223a2268747470733a2f2f7060608201527f616e646f72612e6275696c64222c22696d616765223a220000000000000000006080820152609701919050565b60008351611d39818460208801611618565b835190830190611c09818360208801611618565b7f222c2261747472696275746573223a5b7b2274726169745f74797065223a224381526e37b637b91116113b30b63ab2911d1160891b602082015260008251611d9d81602f850160208701611618565b91909101602f0192915050565b7f646174613a6170706c69636174696f6e2f6a736f6e3b757466382c0000000000815260008251611de281601b850160208701611618565b91909101601b0192915050565b600181815b80851115611e2a578160001904821115611e1057611e10611ab8565b80851615611e1d57918102915b93841c9390800290611df4565b509250929050565b600082611e4157506001610635565b81611e4e57506000610635565b8160018114611e645760028114611e6e57611e8a565b6001915050610635565b60ff841115611e7f57611e7f611ab8565b50506001821b610635565b5060208310610133831016604e8410600b8410161715611ead575081810a610635565b611eb78383611def565b8060001904821115611ecb57611ecb611ab8565b029392505050565b6000610c8360ff841683611e32565b600082611eff57634e487b7160e01b600052601260045260246000fd5b50049056fea264697066735822122028ae0a487bd1fec79a2a8bd5a60532ef92d6e94b59110ee07cd807666604104964736f6c63430008160033","linkReferences":{}},"methodIdentifiers":{"allowance(address,address)":"dd62ed3e","approve(address,uint256)":"095ea7b3","balanceOf(address)":"70a08231","baseTokenURI()":"d547cfb7","dataURI()":"f28ca1dd","decimals()":"313ce567","getApproved(uint256)":"081812fc","isApprovedForAll(address,address)":"e985e9c5","minted()":"4f02c420","name()":"06fdde03","owner()":"8da5cb5b","ownerOf(uint256)":"6352211e","revokeOwnership()":"2b968958","safeTransferFrom(address,address,uint256)":"42842e0e","safeTransferFrom(address,address,uint256,bytes)":"b88d4fde","setApprovalForAll(address,bool)":"a22cb465","setDataURI(string)":"18d217c3","setNameSymbol(string,string)":"504334c2","setTokenURI(string)":"e0df5b6f","setWhitelist(address,bool)":"53d6fd59","symbol()":"95d89b41","tokenURI(uint256)":"c87b56dd","totalSupply()":"18160ddd","transfer(address,uint256)":"a9059cbb","transferFrom(address,address,uint256)":"23b872dd","transferOwnership(address)":"f2fde38b","whitelist(address)":"9b19251a"},"id":22}